{
  "contractName": "Test",
  "abi": [
    {
      "anonymous": false,
      "inputs": [
        {
          "indexed": false,
          "name": "value",
          "type": "uint256"
        }
      ],
      "name": "LogSetValue",
      "type": "event"
    },
    {
      "constant": false,
      "inputs": [
        {
          "name": "_value",
          "type": "uint256"
        }
      ],
      "name": "setValue",
      "outputs": [],
      "payable": false,
      "stateMutability": "nonpayable",
      "type": "function"
    },
    {
      "constant": true,
      "inputs": [],
      "name": "getValue",
      "outputs": [
        {
          "name": "",
          "type": "uint256"
        }
      ],
      "payable": false,
      "stateMutability": "view",
      "type": "function"
    }
  ],
  "bytecode": "0x608060405234801561001057600080fd5b50610116806100206000396000f3006080604052600436106049576000357c0100000000000000000000000000000000000000000000000000000000900463ffffffff1680632096525514604e57806355241077146076575b600080fd5b348015605957600080fd5b50606060a0565b6040518082815260200191505060405180910390f35b348015608157600080fd5b50609e6004803603810190808035906020019092919050505060a9565b005b60008054905090565b806000819055507f73147f4da92a95406f8a41bbf1dc4f5a110e9510257f45cca8b1ec1bac147980816040518082815260200191505060405180910390a1505600a165627a7a7230582004b584208f4558b9e8eb1e6b8757e21e7cecad427e28f57ea3ef8f02193128680029",
  "source": "pragma solidity ^0.4.17;\n\n\ncontract Test {\n    uint value;\n    event LogSetValue (uint value);\n\n    function setValue(uint _value) public {\n        value = _value;\n        LogSetValue(_value);\n    }\n\n    function getValue() public view returns(uint) {\n        return value;\n    }\n}",
  "sourcePath": "/Users/eunwoo/Desktop/my-study/blockchain/march-app/contracts/Test.sol",
  "compiler": {
    "name": "solc",
    "version": "0.4.23+commit.124ca40d.Emscripten.clang"
  },
  "schemaVersion": "2.0.0",
  "updatedAt": "2018-05-09T02:43:49.516Z"
}