{
  "contractName": "MetaCoin",
  "abi": [
    {
      "inputs": [],
      "payable": false,
      "stateMutability": "nonpayable",
      "type": "constructor"
    },
    {
      "constant": false,
      "inputs": [
        {
          "name": "receiver",
          "type": "address"
        },
        {
          "name": "amount",
          "type": "uint256"
        }
      ],
      "name": "sendCoin",
      "outputs": [
        {
          "name": "",
          "type": "bool"
        }
      ],
      "payable": false,
      "stateMutability": "nonpayable",
      "type": "function"
    },
    {
      "constant": true,
      "inputs": [
        {
          "name": "addr",
          "type": "address"
        }
      ],
      "name": "getBalance",
      "outputs": [
        {
          "name": "",
          "type": "uint256"
        }
      ],
      "payable": false,
      "stateMutability": "view",
      "type": "function"
    }
  ],
  "bytecode": "0x608060405234801561001057600080fd5b506127106000803373ffffffffffffffffffffffffffffffffffffffff1673ffffffffffffffffffffffffffffffffffffffff16815260200190815260200160002081905550610275806100656000396000f30060806040526004361061004c576000357c0100000000000000000000000000000000000000000000000000000000900463ffffffff16806390b98a1114610051578063f8b2cb4f146100b6575b600080fd5b34801561005d57600080fd5b5061009c600480360381019080803573ffffffffffffffffffffffffffffffffffffffff1690602001909291908035906020019092919050505061010d565b604051808215151515815260200191505060405180910390f35b3480156100c257600080fd5b506100f7600480360381019080803573ffffffffffffffffffffffffffffffffffffffff169060200190929190505050610201565b6040518082815260200191505060405180910390f35b6000816000803373ffffffffffffffffffffffffffffffffffffffff1673ffffffffffffffffffffffffffffffffffffffff16815260200190815260200160002054101561015e57600090506101fb565b816000803373ffffffffffffffffffffffffffffffffffffffff1673ffffffffffffffffffffffffffffffffffffffff16815260200190815260200160002060008282540392505081905550816000808573ffffffffffffffffffffffffffffffffffffffff1673ffffffffffffffffffffffffffffffffffffffff16815260200190815260200160002060008282540192505081905550600190505b92915050565b60008060008373ffffffffffffffffffffffffffffffffffffffff1673ffffffffffffffffffffffffffffffffffffffff1681526020019081526020016000205490509190505600a165627a7a723058200132e39cd1272e853f8fee81d17aa0e899a939c6543e0c3f0d4d2be0c63660e10029",
  "source": "pragma solidity ^0.4.18;\n\n// This is just a simple example of a coin-like contract.\n// It is not standards compatible and cannot be expected to talk to other\n// coin/token contracts. If you want to create a standards-compliant\n// token, see: https://github.com/ConsenSys/Tokens. Cheers!\n\n// Slightly modified for 0.4.18 Solidity style. Removed the library for simplicity.\n\ncontract MetaCoin {\n\tmapping (address => uint) balances;\n\n\tfunction MetaCoin() public {\n\t\tbalances[msg.sender] = 10000;\n\t}\n\n\tfunction sendCoin(address receiver, uint amount)\n\t    public\n\t    returns (bool)\n    {\n\t\tif (balances[msg.sender] < amount) {\n            return false;\n        }\n\t\tbalances[msg.sender] -= amount;\n\t\tbalances[receiver] += amount;\n\t\treturn true;\n\t}\n\n\tfunction getBalance(address addr)\n\t    public\n\t    view\n\t    returns (uint)\n    {\n  \t    return balances[addr];\n\t}\n}\n",
  "sourcePath": "/Users/eunwoo/Desktop/my-study/blockchain/march-mvp-version2/contracts/MetaCoin.sol",
  "compiler": {
    "name": "solc",
    "version": "0.4.23+commit.124ca40d.Emscripten.clang"
  },
  "schemaVersion": "2.0.0",
  "updatedAt": "2018-04-25T03:57:02.341Z"
}