{
  "contractName": "EntityManager",
  "abi": [
    {
      "constant": false,
      "inputs": [
        {
          "name": "name",
          "type": "string"
        },
        {
          "name": "age",
          "type": "uint256"
        },
        {
          "name": "job",
          "type": "string"
        }
      ],
      "name": "addUser",
      "outputs": [],
      "payable": false,
      "stateMutability": "nonpayable",
      "type": "function"
    },
    {
      "constant": true,
      "inputs": [],
      "name": "getUsers",
      "outputs": [
        {
          "name": "",
          "type": "address[]"
        }
      ],
      "payable": false,
      "stateMutability": "view",
      "type": "function"
    }
  ],
  "bytecode": "0x6080604052600060015534801561001557600080fd5b5061056d806100256000396000f30060806040526004361061004b576000357c0100000000000000000000000000000000000000000000000000000000900463ffffffff168062ce8e3e14610050578063820ba76f146100bc575b600080fd5b34801561005c57600080fd5b50610065610175565b6040518080602001828103825283818151815260200191508051906020019060200280838360005b838110156100a857808201518184015260208101905061008d565b505050509050019250505060405180910390f35b3480156100c857600080fd5b50610173600480360381019080803590602001908201803590602001908080601f016020809104026020016040519081016040528093929190818152602001838380828437820191505050505050919291929080359060200190929190803590602001908201803590602001908080601f0160208091040260200160405190810160405280939291908181526020018383808284378201915050505050509192919290505050610203565b005b606060008054806020026020016040519081016040528092919081815260200182805480156101f957602002820191906000526020600020905b8160009054906101000a900473ffffffffffffffffffffffffffffffffffffffff1673ffffffffffffffffffffffffffffffffffffffff16815260200190600101908083116101af575b5050505050905090565b82828261020e610379565b808060200184815260200180602001838103835286818151815260200191508051906020019080838360005b8381101561025557808201518184015260208101905061023a565b50505050905090810190601f1680156102825780820380516001836020036101000a031916815260200191505b50838103825284818151815260200191508051906020019080838360005b838110156102bb5780820151818401526020810190506102a0565b50505050905090810190601f1680156102e85780820380516001836020036101000a031916815260200191505b5095505050505050604051809103906000f08015801561030c573d6000803e3d6000fd5b506000600160008154809291906001019190505581548110151561032c57fe5b9060005260206000200160006101000a81548173ffffffffffffffffffffffffffffffffffffffff021916908373ffffffffffffffffffffffffffffffffffffffff160217905550505050565b6040516101b88061038a833901905600608060405234801561001057600080fd5b506040516101b83803806101b8833981018060405281019080805182019291906020018051906020019092919080518201929190505050336000800160006101000a81548173ffffffffffffffffffffffffffffffffffffffff021916908373ffffffffffffffffffffffffffffffffffffffff16021790555082600060010190805190602001906100a39291906100d0565b508160006002018190555080600060030190805190602001906100c79291906100d0565b50505050610175565b828054600181600116156101000203166002900490600052602060002090601f016020900481019282601f1061011157805160ff191683800117855561013f565b8280016001018555821561013f579182015b8281111561013e578251825591602001919060010190610123565b5b50905061014c9190610150565b5090565b61017291905b8082111561016e576000816000905550600101610156565b5090565b90565b6035806101836000396000f3006080604052600080fd00a165627a7a723058209a31bd2bd6327549f57fcb7574e7ec27a472e3f1de49a04835a154286412047f0029a165627a7a723058200b5ce81f567e19c8815341273887f52f859de54c9b0343e4ab2bd8c1e00e1f760029",
  "source": "pragma solidity ^0.4.17;\n\nimport \"./User.sol\";\n\n\ncontract EntityManager {\n    User[] users;\n    uint userCount = 0;\n\n    function addUser(string name, uint age, string job) public {\n        users[userCount++] = new User(name, age, job);\n    }\n\n    function getUsers() public view returns (User[]) {\n        return users;\n    }\n}",
  "sourcePath": "/Users/eunwoo/Desktop/my-study/blockchain/march-mvp/server/contracts/EntityManager.sol",
  "compiler": {
    "name": "solc",
    "version": "0.4.23+commit.124ca40d.Emscripten.clang"
  },
  "schemaVersion": "2.0.0",
  "updatedAt": "2018-04-24T06:39:34.794Z"
}