{
  "contractName": "UserInit",
  "abi": [
    {
      "anonymous": false,
      "inputs": [
        {
          "indexed": true,
          "name": "userAddress",
          "type": "address"
        },
        {
          "indexed": false,
          "name": "index",
          "type": "uint256"
        },
        {
          "indexed": false,
          "name": "userName",
          "type": "bytes32"
        },
        {
          "indexed": false,
          "name": "userEmail",
          "type": "bytes32"
        },
        {
          "indexed": false,
          "name": "userAge",
          "type": "uint256"
        }
      ],
      "name": "LogNewUser",
      "type": "event"
    },
    {
      "anonymous": false,
      "inputs": [
        {
          "indexed": true,
          "name": "userAddress",
          "type": "address"
        },
        {
          "indexed": false,
          "name": "index",
          "type": "uint256"
        },
        {
          "indexed": false,
          "name": "userName",
          "type": "bytes32"
        },
        {
          "indexed": false,
          "name": "userEmail",
          "type": "bytes32"
        },
        {
          "indexed": false,
          "name": "userAge",
          "type": "uint256"
        }
      ],
      "name": "LogUpdateUser",
      "type": "event"
    },
    {
      "constant": true,
      "inputs": [
        {
          "name": "userAddress",
          "type": "address"
        }
      ],
      "name": "isUser",
      "outputs": [
        {
          "name": "isIndeed",
          "type": "bool"
        }
      ],
      "payable": false,
      "stateMutability": "view",
      "type": "function"
    },
    {
      "constant": false,
      "inputs": [
        {
          "name": "userAddress",
          "type": "address"
        },
        {
          "name": "userName",
          "type": "bytes32"
        },
        {
          "name": "userAge",
          "type": "uint256"
        },
        {
          "name": "userEmail",
          "type": "bytes32"
        }
      ],
      "name": "insertUser",
      "outputs": [
        {
          "name": "index",
          "type": "uint256"
        }
      ],
      "payable": false,
      "stateMutability": "nonpayable",
      "type": "function"
    },
    {
      "constant": true,
      "inputs": [
        {
          "name": "userAddress",
          "type": "address"
        }
      ],
      "name": "getUser",
      "outputs": [
        {
          "name": "userName",
          "type": "bytes32"
        },
        {
          "name": "userEmail",
          "type": "bytes32"
        },
        {
          "name": "userAge",
          "type": "uint256"
        },
        {
          "name": "index",
          "type": "uint256"
        }
      ],
      "payable": false,
      "stateMutability": "view",
      "type": "function"
    },
    {
      "constant": false,
      "inputs": [
        {
          "name": "userAddress",
          "type": "address"
        },
        {
          "name": "userEmail",
          "type": "bytes32"
        }
      ],
      "name": "updateUserEmail",
      "outputs": [
        {
          "name": "success",
          "type": "bool"
        }
      ],
      "payable": false,
      "stateMutability": "nonpayable",
      "type": "function"
    },
    {
      "constant": false,
      "inputs": [
        {
          "name": "userAddress",
          "type": "address"
        },
        {
          "name": "userAge",
          "type": "uint256"
        }
      ],
      "name": "updateUserAge",
      "outputs": [
        {
          "name": "success",
          "type": "bool"
        }
      ],
      "payable": false,
      "stateMutability": "nonpayable",
      "type": "function"
    },
    {
      "constant": true,
      "inputs": [],
      "name": "getUserCount",
      "outputs": [
        {
          "name": "count",
          "type": "uint256"
        }
      ],
      "payable": false,
      "stateMutability": "view",
      "type": "function"
    },
    {
      "constant": true,
      "inputs": [
        {
          "name": "index",
          "type": "uint256"
        }
      ],
      "name": "getUserAtIndex",
      "outputs": [
        {
          "name": "userAddress",
          "type": "address"
        }
      ],
      "payable": false,
      "stateMutability": "view",
      "type": "function"
    }
  ],
  "bytecode": "0x608060405234801561001057600080fd5b50610b5e806100206000396000f300608060405260043610610083576000357c0100000000000000000000000000000000000000000000000000000000900463ffffffff1680632e071db3146100885780634209fff1146100ed5780636f77926b1461014857806381f1d75c146101c4578063ad4cc9b01461022d578063b5cb15f7146102aa578063ffcc7bbf146102d5575b600080fd5b34801561009457600080fd5b506100d3600480360381019080803573ffffffffffffffffffffffffffffffffffffffff16906020019092919080359060200190929190505050610342565b604051808215151515815260200191505060405180910390f35b3480156100f957600080fd5b5061012e600480360381019080803573ffffffffffffffffffffffffffffffffffffffff1690602001909291905050506104e1565b604051808215151515815260200191505060405180910390f35b34801561015457600080fd5b50610189600480360381019080803573ffffffffffffffffffffffffffffffffffffffff1690602001909291905050506105aa565b604051808560001916600019168152602001846000191660001916815260200183815260200182815260200194505050505060405180910390f35b3480156101d057600080fd5b50610213600480360381019080803573ffffffffffffffffffffffffffffffffffffffff16906020019092919080356000191690602001909291905050506106db565b604051808215151515815260200191505060405180910390f35b34801561023957600080fd5b50610294600480360381019080803573ffffffffffffffffffffffffffffffffffffffff169060200190929190803560001916906020019092919080359060200190929190803560001916906020019092919050505061087e565b6040518082815260200191505060405180910390f35b3480156102b657600080fd5b506102bf610ae2565b6040518082815260200191505060405180910390f35b3480156102e157600080fd5b5061030060048036038101908080359060200190929190505050610aef565b604051808273ffffffffffffffffffffffffffffffffffffffff1673ffffffffffffffffffffffffffffffffffffffff16815260200191505060405180910390f35b600061034d836104e1565b151561035857600080fd5b816000808573ffffffffffffffffffffffffffffffffffffffff1673ffffffffffffffffffffffffffffffffffffffff168152602001908152602001600020600201819055508273ffffffffffffffffffffffffffffffffffffffff167f69d58da3a4a4ccf07e213eae4603174516e4d80c04549fe049e26fffe78f2c196000808673ffffffffffffffffffffffffffffffffffffffff1673ffffffffffffffffffffffffffffffffffffffff168152602001908152602001600020600301546000808773ffffffffffffffffffffffffffffffffffffffff1673ffffffffffffffffffffffffffffffffffffffff168152602001908152602001600020600101546000808873ffffffffffffffffffffffffffffffffffffffff1673ffffffffffffffffffffffffffffffffffffffff1681526020019081526020016000206000015486604051808581526020018460001916600019168152602001836000191660001916815260200182815260200194505050505060405180910390a26001905092915050565b60008060018054905014156104f957600090506105a5565b8173ffffffffffffffffffffffffffffffffffffffff1660016000808573ffffffffffffffffffffffffffffffffffffffff1673ffffffffffffffffffffffffffffffffffffffff1681526020019081526020016000206003015481548110151561056057fe5b9060005260206000200160009054906101000a900473ffffffffffffffffffffffffffffffffffffffff1673ffffffffffffffffffffffffffffffffffffffff161490505b919050565b6000806000806105b9856104e1565b15156105c457600080fd5b6000808673ffffffffffffffffffffffffffffffffffffffff1673ffffffffffffffffffffffffffffffffffffffff168152602001908152602001600020600101546000808773ffffffffffffffffffffffffffffffffffffffff1673ffffffffffffffffffffffffffffffffffffffff168152602001908152602001600020600001546000808873ffffffffffffffffffffffffffffffffffffffff1673ffffffffffffffffffffffffffffffffffffffff168152602001908152602001600020600201546000808973ffffffffffffffffffffffffffffffffffffffff1673ffffffffffffffffffffffffffffffffffffffff1681526020019081526020016000206003015493509350935093509193509193565b60006106e6836104e1565b15156106f157600080fd5b816000808573ffffffffffffffffffffffffffffffffffffffff1673ffffffffffffffffffffffffffffffffffffffff16815260200190815260200160002060000181600019169055508273ffffffffffffffffffffffffffffffffffffffff167f69d58da3a4a4ccf07e213eae4603174516e4d80c04549fe049e26fffe78f2c196000808673ffffffffffffffffffffffffffffffffffffffff1673ffffffffffffffffffffffffffffffffffffffff168152602001908152602001600020600301546000808773ffffffffffffffffffffffffffffffffffffffff1673ffffffffffffffffffffffffffffffffffffffff16815260200190815260200160002060010154856000808973ffffffffffffffffffffffffffffffffffffffff1673ffffffffffffffffffffffffffffffffffffffff16815260200190815260200160002060020154604051808581526020018460001916600019168152602001836000191660001916815260200182815260200194505050505060405180910390a26001905092915050565b6000610889856104e1565b1561089357600080fd5b816000808773ffffffffffffffffffffffffffffffffffffffff1673ffffffffffffffffffffffffffffffffffffffff1681526020019081526020016000206000018160001916905550826000808773ffffffffffffffffffffffffffffffffffffffff1673ffffffffffffffffffffffffffffffffffffffff16815260200190815260200160002060020181905550836000808773ffffffffffffffffffffffffffffffffffffffff1673ffffffffffffffffffffffffffffffffffffffff16815260200190815260200160002060010181600019169055506001808690806001815401808255809150509060018203906000526020600020016000909192909190916101000a81548173ffffffffffffffffffffffffffffffffffffffff021916908373ffffffffffffffffffffffffffffffffffffffff160217905550036000808773ffffffffffffffffffffffffffffffffffffffff1673ffffffffffffffffffffffffffffffffffffffff168152602001908152602001600020600301819055508473ffffffffffffffffffffffffffffffffffffffff167ff918b138b5e4a6e56ffd62f1c22bd7ce75cb8aeea425f7f901be3000a2b0fa7c6000808873ffffffffffffffffffffffffffffffffffffffff1673ffffffffffffffffffffffffffffffffffffffff16815260200190815260200160002060030154868587604051808581526020018460001916600019168152602001836000191660001916815260200182815260200194505050505060405180910390a260018080549050039050949350505050565b6000600180549050905090565b6000600182815481101515610b0057fe5b9060005260206000200160009054906101000a900473ffffffffffffffffffffffffffffffffffffffff1690509190505600a165627a7a72305820edc22effed0a80d10aa54fc122f6f58bf67bed6c0f2f2bac9eadd2c1891b67dd0029",
  "source": "pragma solidity ^0.4.17;\n\n\ncontract UserInit {\n    event LogNewUser   (address indexed userAddress, uint index, bytes32 userName, bytes32 userEmail, uint userAge);\n    event LogUpdateUser(address indexed userAddress, uint index, bytes32 userName, bytes32 userEmail, uint userAge);\n\n    struct UserStruct {\n        bytes32 userEmail;\n        bytes32 userName;\n        uint userAge;\n        uint index;\n    }\n\n    mapping(address => UserStruct) private userStructs;\n    address[] private userIndex;\n\n    function isUser(address userAddress)\n        public\n        constant\n        returns(bool isIndeed)\n    {\n        if(userIndex.length == 0) return false;\n        return (userIndex[userStructs[userAddress].index] == userAddress);\n    }\n\n    function insertUser(\n        address userAddress,\n        bytes32 userName,\n        uint    userAge,\n        bytes32 userEmail)\n        public\n        returns(uint index)\n    {\n        if(isUser(userAddress)) throw;\n        userStructs[userAddress].userEmail = userEmail;\n        userStructs[userAddress].userAge   = userAge;\n        userStructs[userAddress].userName  = userName;\n        userStructs[userAddress].index     = userIndex.push(userAddress)-1;\n        LogNewUser(\n            userAddress,\n            userStructs[userAddress].index,\n            userName,\n            userEmail,\n            userAge);\n        return userIndex.length-1;\n    }\n\n    function getUser(address userAddress)\n        public\n        constant\n        returns(bytes32 userName, bytes32 userEmail, uint userAge, uint index)\n    {\n        if(!isUser(userAddress)) throw;\n        return(\n        userStructs[userAddress].userName,\n        userStructs[userAddress].userEmail,\n        userStructs[userAddress].userAge,\n        userStructs[userAddress].index);\n    }\n\n    function updateUserEmail(address userAddress, bytes32 userEmail)\n        public\n        returns(bool success)\n    {\n        if(!isUser(userAddress)) throw;\n        userStructs[userAddress].userEmail = userEmail;\n        LogUpdateUser(\n        userAddress,\n        userStructs[userAddress].index,\n        userStructs[userAddress].userName,\n        userEmail,\n        userStructs[userAddress].userAge);\n        return true;\n    }\n\n    function updateUserAge(address userAddress, uint userAge)\n        public\n        returns(bool success)\n    {\n        if(!isUser(userAddress)) throw;\n        userStructs[userAddress].userAge = userAge;\n        LogUpdateUser(\n        userAddress,\n        userStructs[userAddress].index,\n        userStructs[userAddress].userName,\n        userStructs[userAddress].userEmail,\n        userAge);\n        return true;\n    }\n\n    function getUserCount()\n        public\n        constant\n        returns(uint count)\n    {\n        return userIndex.length;\n    }\n\n    function getUserAtIndex(uint index)\n        public\n        constant\n        returns(address userAddress)\n    {\n        return userIndex[index];\n    }\n}\n",
  "sourcePath": "/Users/eunwoo/Desktop/my-study/blockchain/blockchain-mvp-project/contracts/UserInit.sol",
  "compiler": {
    "name": "solc",
    "version": "0.4.23+commit.124ca40d.Emscripten.clang"
  },
  "schemaVersion": "2.0.0",
  "updatedAt": "2018-05-04T03:02:39.976Z"
}