{
  "contractName": "UserInit",
  "abi": [
    {
      "constant": true,
      "inputs": [],
      "name": "value",
      "outputs": [
        {
          "name": "",
          "type": "uint256"
        }
      ],
      "payable": false,
      "stateMutability": "view",
      "type": "function"
    },
    {
      "anonymous": false,
      "inputs": [
        {
          "indexed": false,
          "name": "val",
          "type": "uint256"
        }
      ],
      "name": "ValueSet",
      "type": "event"
    },
    {
      "constant": false,
      "inputs": [
        {
          "name": "val",
          "type": "uint256"
        }
      ],
      "name": "setValue",
      "outputs": [],
      "payable": false,
      "stateMutability": "nonpayable",
      "type": "function"
    },
    {
      "constant": true,
      "inputs": [],
      "name": "getValue",
      "outputs": [
        {
          "name": "",
          "type": "uint256"
        }
      ],
      "payable": false,
      "stateMutability": "view",
      "type": "function"
    }
  ],
  "bytecode": "0x608060405234801561001057600080fd5b50610117806100206000396000f3006080604052600436106053576000357c0100000000000000000000000000000000000000000000000000000000900463ffffffff168063209652551460585780633fa4f245146080578063552410771460a8575b600080fd5b348015606357600080fd5b50606a60d2565b6040518082815260200191505060405180910390f35b348015608b57600080fd5b50609260db565b6040518082815260200191505060405180910390f35b34801560b357600080fd5b5060d06004803603810190808035906020019092919050505060e1565b005b60008054905090565b60005481565b80600081905550505600a165627a7a72305820a7402406bb5dfb3278b9649d50833bcdb5f387efb403ecff48cc55a14ba470700029",
  "source": "pragma solidity ^0.4.17;\n\n\ncontract UserInit {\n    uint public value;\n    event ValueSet(uint val);\n\n    function setValue(uint val) public {\n        value = val;\n        // ValueSet(value);\n    }\n\n    function getValue() public constant returns (uint) {\n        return value;\n    }\n}\n",
  "sourcePath": "/Users/eunwoo/Desktop/my-study/blockchain/blockchain-mvp-project/contracts/UserInit.sol",
  "compiler": {
    "name": "solc",
    "version": "0.4.23+commit.124ca40d.Emscripten.clang"
  },
  "schemaVersion": "2.0.0",
  "updatedAt": "2018-05-02T08:44:02.620Z"
}