{
  "contractName": "UserInit",
  "abi": [
    {
      "constant": true,
      "inputs": [],
      "name": "value",
      "outputs": [
        {
          "name": "",
          "type": "uint256"
        }
      ],
      "payable": false,
      "stateMutability": "view",
      "type": "function"
    },
    {
      "anonymous": false,
      "inputs": [
        {
          "indexed": false,
          "name": "val",
          "type": "uint256"
        }
      ],
      "name": "ValueSet",
      "type": "event"
    },
    {
      "constant": false,
      "inputs": [
        {
          "name": "val",
          "type": "uint256"
        }
      ],
      "name": "setValue",
      "outputs": [],
      "payable": false,
      "stateMutability": "nonpayable",
      "type": "function"
    },
    {
      "constant": true,
      "inputs": [],
      "name": "getValue",
      "outputs": [
        {
          "name": "",
          "type": "uint256"
        }
      ],
      "payable": false,
      "stateMutability": "view",
      "type": "function"
    }
  ],
  "bytecode": "0x608060405234801561001057600080fd5b5061015d806100206000396000f300608060405260043610610057576000357c0100000000000000000000000000000000000000000000000000000000900463ffffffff168063209652551461005c5780633fa4f2451461008757806355241077146100b2575b600080fd5b34801561006857600080fd5b506100716100df565b6040518082815260200191505060405180910390f35b34801561009357600080fd5b5061009c6100e8565b6040518082815260200191505060405180910390f35b3480156100be57600080fd5b506100dd600480360381019080803590602001909291905050506100ee565b005b60008054905090565b60005481565b806000819055507f012c78e2b84325878b1bd9d250d772cfe5bda7722d795f45036fa5e1e6e303fc6000546040518082815260200191505060405180910390a1505600a165627a7a7230582078702c0a0a29d63b5ee4ef497bf2885a35757f52096b0180cf9281f00c971cda0029",
  "source": "pragma solidity ^0.4.17;\n\n\ncontract UserInit {\n    uint public value;\n    event ValueSet(uint val);\n\n    function setValue(uint val) public {\n        value = val;\n        ValueSet(value);\n    }\n\n    function getValue() public constant returns (uint) {\n        return value;\n    }\n}\n",
  "sourcePath": "/Users/eunwoo/Desktop/my-study/blockchain/blockchain-mvp-project/contracts/UserInit.sol",
  "compiler": {
    "name": "solc",
    "version": "0.4.23+commit.124ca40d.Emscripten.clang"
  },
  "schemaVersion": "2.0.0",
  "updatedAt": "2018-05-02T10:35:39.268Z"
}