{
  "contractName": "UserInit",
  "abi": [
    {
      "anonymous": false,
      "inputs": [
        {
          "indexed": true,
          "name": "userAddress",
          "type": "address"
        },
        {
          "indexed": false,
          "name": "index",
          "type": "uint256"
        },
        {
          "indexed": false,
          "name": "userName",
          "type": "bytes32"
        },
        {
          "indexed": false,
          "name": "userEmail",
          "type": "bytes32"
        },
        {
          "indexed": false,
          "name": "userAge",
          "type": "uint256"
        }
      ],
      "name": "LogNewUser",
      "type": "event"
    },
    {
      "anonymous": false,
      "inputs": [
        {
          "indexed": true,
          "name": "userAddress",
          "type": "address"
        },
        {
          "indexed": false,
          "name": "index",
          "type": "uint256"
        },
        {
          "indexed": false,
          "name": "userName",
          "type": "bytes32"
        },
        {
          "indexed": false,
          "name": "userEmail",
          "type": "bytes32"
        },
        {
          "indexed": false,
          "name": "userAge",
          "type": "uint256"
        }
      ],
      "name": "LogUpdateUser",
      "type": "event"
    },
    {
      "constant": true,
      "inputs": [
        {
          "name": "userAddress",
          "type": "address"
        }
      ],
      "name": "isUser",
      "outputs": [
        {
          "name": "isIndeed",
          "type": "bool"
        }
      ],
      "payable": false,
      "stateMutability": "view",
      "type": "function"
    },
    {
      "constant": false,
      "inputs": [
        {
          "name": "userAddress",
          "type": "address"
        },
        {
          "name": "userName",
          "type": "bytes32"
        },
        {
          "name": "userAge",
          "type": "uint256"
        },
        {
          "name": "userEmail",
          "type": "bytes32"
        }
      ],
      "name": "insertUser",
      "outputs": [
        {
          "name": "index",
          "type": "uint256"
        }
      ],
      "payable": false,
      "stateMutability": "nonpayable",
      "type": "function"
    },
    {
      "constant": true,
      "inputs": [
        {
          "name": "userAddress",
          "type": "address"
        }
      ],
      "name": "getUser",
      "outputs": [
        {
          "name": "userName",
          "type": "bytes32"
        },
        {
          "name": "userEmail",
          "type": "bytes32"
        },
        {
          "name": "userAge",
          "type": "uint256"
        },
        {
          "name": "index",
          "type": "uint256"
        }
      ],
      "payable": false,
      "stateMutability": "view",
      "type": "function"
    },
    {
      "constant": false,
      "inputs": [
        {
          "name": "userAddress",
          "type": "address"
        },
        {
          "name": "userEmail",
          "type": "bytes32"
        }
      ],
      "name": "updateUserEmail",
      "outputs": [
        {
          "name": "success",
          "type": "bool"
        }
      ],
      "payable": false,
      "stateMutability": "nonpayable",
      "type": "function"
    },
    {
      "constant": false,
      "inputs": [
        {
          "name": "userAddress",
          "type": "address"
        },
        {
          "name": "userAge",
          "type": "uint256"
        }
      ],
      "name": "updateUserAge",
      "outputs": [
        {
          "name": "success",
          "type": "bool"
        }
      ],
      "payable": false,
      "stateMutability": "nonpayable",
      "type": "function"
    },
    {
      "constant": true,
      "inputs": [],
      "name": "getUserCount",
      "outputs": [
        {
          "name": "count",
          "type": "uint256"
        }
      ],
      "payable": false,
      "stateMutability": "view",
      "type": "function"
    },
    {
      "constant": true,
      "inputs": [
        {
          "name": "index",
          "type": "uint256"
        }
      ],
      "name": "getUserAtIndex",
      "outputs": [
        {
          "name": "userAddress",
          "type": "address"
        }
      ],
      "payable": false,
      "stateMutability": "view",
      "type": "function"
    },
    {
      "constant": true,
      "inputs": [],
      "name": "getAllUsers",
      "outputs": [
        {
          "name": "userNames",
          "type": "bytes32[]"
        },
        {
          "name": "userEmails",
          "type": "bytes32[]"
        },
        {
          "name": "userAges",
          "type": "uint256[]"
        },
        {
          "name": "userIndexes",
          "type": "uint256[]"
        }
      ],
      "payable": false,
      "stateMutability": "view",
      "type": "function"
    }
  ],
  "bytecode": "0x608060405234801561001057600080fd5b50610fa9806100206000396000f30060806040526004361061008e576000357c0100000000000000000000000000000000000000000000000000000000900463ffffffff1680632e071db3146100935780634209fff1146100f85780636f77926b1461015357806381f1d75c146101cf578063ad4cc9b014610238578063b5cb15f7146102b5578063e2842d79146102e0578063ffcc7bbf14610424575b600080fd5b34801561009f57600080fd5b506100de600480360381019080803573ffffffffffffffffffffffffffffffffffffffff16906020019092919080359060200190929190505050610491565b604051808215151515815260200191505060405180910390f35b34801561010457600080fd5b50610139600480360381019080803573ffffffffffffffffffffffffffffffffffffffff169060200190929190505050610630565b604051808215151515815260200191505060405180910390f35b34801561015f57600080fd5b50610194600480360381019080803573ffffffffffffffffffffffffffffffffffffffff1690602001909291905050506106f9565b604051808560001916600019168152602001846000191660001916815260200183815260200182815260200194505050505060405180910390f35b3480156101db57600080fd5b5061021e600480360381019080803573ffffffffffffffffffffffffffffffffffffffff169060200190929190803560001916906020019092919050505061082a565b604051808215151515815260200191505060405180910390f35b34801561024457600080fd5b5061029f600480360381019080803573ffffffffffffffffffffffffffffffffffffffff16906020019092919080356000191690602001909291908035906020019092919080356000191690602001909291905050506109cd565b6040518082815260200191505060405180910390f35b3480156102c157600080fd5b506102ca610c31565b6040518082815260200191505060405180910390f35b3480156102ec57600080fd5b506102f5610c3e565b6040518080602001806020018060200180602001858103855289818151815260200191508051906020019060200280838360005b83811015610344578082015181840152602081019050610329565b50505050905001858103845288818151815260200191508051906020019060200280838360005b8381101561038657808201518184015260208101905061036b565b50505050905001858103835287818151815260200191508051906020019060200280838360005b838110156103c85780820151818401526020810190506103ad565b50505050905001858103825286818151815260200191508051906020019060200280838360005b8381101561040a5780820151818401526020810190506103ef565b505050509050019850505050505050505060405180910390f35b34801561043057600080fd5b5061044f60048036038101908080359060200190929190505050610f3a565b604051808273ffffffffffffffffffffffffffffffffffffffff1673ffffffffffffffffffffffffffffffffffffffff16815260200191505060405180910390f35b600061049c83610630565b15156104a757600080fd5b816000808573ffffffffffffffffffffffffffffffffffffffff1673ffffffffffffffffffffffffffffffffffffffff168152602001908152602001600020600201819055508273ffffffffffffffffffffffffffffffffffffffff167f69d58da3a4a4ccf07e213eae4603174516e4d80c04549fe049e26fffe78f2c196000808673ffffffffffffffffffffffffffffffffffffffff1673ffffffffffffffffffffffffffffffffffffffff168152602001908152602001600020600301546000808773ffffffffffffffffffffffffffffffffffffffff1673ffffffffffffffffffffffffffffffffffffffff168152602001908152602001600020600101546000808873ffffffffffffffffffffffffffffffffffffffff1673ffffffffffffffffffffffffffffffffffffffff1681526020019081526020016000206000015486604051808581526020018460001916600019168152602001836000191660001916815260200182815260200194505050505060405180910390a26001905092915050565b600080600180549050141561064857600090506106f4565b8173ffffffffffffffffffffffffffffffffffffffff1660016000808573ffffffffffffffffffffffffffffffffffffffff1673ffffffffffffffffffffffffffffffffffffffff168152602001908152602001600020600301548154811015156106af57fe5b9060005260206000200160009054906101000a900473ffffffffffffffffffffffffffffffffffffffff1673ffffffffffffffffffffffffffffffffffffffff161490505b919050565b60008060008061070885610630565b151561071357600080fd5b6000808673ffffffffffffffffffffffffffffffffffffffff1673ffffffffffffffffffffffffffffffffffffffff168152602001908152602001600020600101546000808773ffffffffffffffffffffffffffffffffffffffff1673ffffffffffffffffffffffffffffffffffffffff168152602001908152602001600020600001546000808873ffffffffffffffffffffffffffffffffffffffff1673ffffffffffffffffffffffffffffffffffffffff168152602001908152602001600020600201546000808973ffffffffffffffffffffffffffffffffffffffff1673ffffffffffffffffffffffffffffffffffffffff1681526020019081526020016000206003015493509350935093509193509193565b600061083583610630565b151561084057600080fd5b816000808573ffffffffffffffffffffffffffffffffffffffff1673ffffffffffffffffffffffffffffffffffffffff16815260200190815260200160002060000181600019169055508273ffffffffffffffffffffffffffffffffffffffff167f69d58da3a4a4ccf07e213eae4603174516e4d80c04549fe049e26fffe78f2c196000808673ffffffffffffffffffffffffffffffffffffffff1673ffffffffffffffffffffffffffffffffffffffff168152602001908152602001600020600301546000808773ffffffffffffffffffffffffffffffffffffffff1673ffffffffffffffffffffffffffffffffffffffff16815260200190815260200160002060010154856000808973ffffffffffffffffffffffffffffffffffffffff1673ffffffffffffffffffffffffffffffffffffffff16815260200190815260200160002060020154604051808581526020018460001916600019168152602001836000191660001916815260200182815260200194505050505060405180910390a26001905092915050565b60006109d885610630565b156109e257600080fd5b816000808773ffffffffffffffffffffffffffffffffffffffff1673ffffffffffffffffffffffffffffffffffffffff1681526020019081526020016000206000018160001916905550826000808773ffffffffffffffffffffffffffffffffffffffff1673ffffffffffffffffffffffffffffffffffffffff16815260200190815260200160002060020181905550836000808773ffffffffffffffffffffffffffffffffffffffff1673ffffffffffffffffffffffffffffffffffffffff16815260200190815260200160002060010181600019169055506001808690806001815401808255809150509060018203906000526020600020016000909192909190916101000a81548173ffffffffffffffffffffffffffffffffffffffff021916908373ffffffffffffffffffffffffffffffffffffffff160217905550036000808773ffffffffffffffffffffffffffffffffffffffff1673ffffffffffffffffffffffffffffffffffffffff168152602001908152602001600020600301819055508473ffffffffffffffffffffffffffffffffffffffff167ff918b138b5e4a6e56ffd62f1c22bd7ce75cb8aeea425f7f901be3000a2b0fa7c6000808873ffffffffffffffffffffffffffffffffffffffff1673ffffffffffffffffffffffffffffffffffffffff16815260200190815260200160002060030154868587604051808581526020018460001916600019168152602001836000191660001916815260200182815260200194505050505060405180910390a260018080549050039050949350505050565b6000600180549050905090565b606080606080606080606080600080600180549050604051908082528060200260200182016040528015610c815781602001602082028038833980820191505090505b509550600180549050604051908082528060200260200182016040528015610cb85781602001602082028038833980820191505090505b509450600180549050604051908082528060200260200182016040528015610cef5781602001602082028038833980820191505090505b509350600180549050604051908082528060200260200182016040528015610d265781602001602082028038833980820191505090505b509250600091505b6001805490508260ff161015610f225760018260ff16815481101515610d5057fe5b9060005260206000200160009054906101000a900473ffffffffffffffffffffffffffffffffffffffff1690506000808273ffffffffffffffffffffffffffffffffffffffff1673ffffffffffffffffffffffffffffffffffffffff16815260200190815260200160002060010154868360ff16815181101515610dd057fe5b9060200190602002019060001916908160001916815250506000808273ffffffffffffffffffffffffffffffffffffffff1673ffffffffffffffffffffffffffffffffffffffff16815260200190815260200160002060000154858360ff16815181101515610e3b57fe5b9060200190602002019060001916908160001916815250506000808273ffffffffffffffffffffffffffffffffffffffff1673ffffffffffffffffffffffffffffffffffffffff16815260200190815260200160002060020154848360ff16815181101515610ea657fe5b90602001906020020181815250506000808273ffffffffffffffffffffffffffffffffffffffff1673ffffffffffffffffffffffffffffffffffffffff16815260200190815260200160002060030154838360ff16815181101515610f0757fe5b90602001906020020181815250508180600101925050610d2e565b85858585995099509950995050505050505090919293565b6000600182815481101515610f4b57fe5b9060005260206000200160009054906101000a900473ffffffffffffffffffffffffffffffffffffffff1690509190505600a165627a7a723058201977847b130bebd04b3c194f27aada6e9d195212140cfd8ba156ba0f5c7c4aeb0029",
  "source": "pragma solidity ^0.4.17;\n\n\ncontract UserInit {\n    event LogNewUser   (address indexed userAddress, uint index, bytes32 userName, bytes32 userEmail, uint userAge);\n    event LogUpdateUser(address indexed userAddress, uint index, bytes32 userName, bytes32 userEmail, uint userAge);\n\n    struct UserStruct {\n        bytes32 userEmail;\n        bytes32 userName;\n        uint userAge;\n        uint index;\n    }\n\n    mapping(address => UserStruct) private userStructs;\n    address[] private userIndex;\n\n    function isUser(address userAddress)\n        public\n        constant\n        returns(bool isIndeed)\n    {\n        if(userIndex.length == 0) return false;\n        return (userIndex[userStructs[userAddress].index] == userAddress);\n    }\n\n    function insertUser(\n        address userAddress,\n        bytes32 userName,\n        uint    userAge,\n        bytes32 userEmail)\n        public\n        returns(uint index)\n    {\n        if(isUser(userAddress)) throw;\n        userStructs[userAddress].userEmail = userEmail;\n        userStructs[userAddress].userAge   = userAge;\n        userStructs[userAddress].userName  = userName;\n        userStructs[userAddress].index     = userIndex.push(userAddress)-1;\n        LogNewUser(\n            userAddress,\n            userStructs[userAddress].index,\n            userName,\n            userEmail,\n            userAge);\n        return userIndex.length-1;\n    }\n\n    function getUser(address userAddress)\n        public\n        constant\n        returns(bytes32 userName, bytes32 userEmail, uint userAge, uint index)\n    {\n        if(!isUser(userAddress)) throw;\n        return(\n        userStructs[userAddress].userName,\n        userStructs[userAddress].userEmail,\n        userStructs[userAddress].userAge,\n        userStructs[userAddress].index);\n    }\n\n    function updateUserEmail(address userAddress, bytes32 userEmail)\n        public\n        returns(bool success)\n    {\n        if(!isUser(userAddress)) throw;\n        userStructs[userAddress].userEmail = userEmail;\n        LogUpdateUser(\n        userAddress,\n        userStructs[userAddress].index,\n        userStructs[userAddress].userName,\n        userEmail,\n        userStructs[userAddress].userAge);\n        return true;\n    }\n\n    function updateUserAge(address userAddress, uint userAge)\n        public\n        returns(bool success)\n    {\n        if(!isUser(userAddress)) throw;\n        userStructs[userAddress].userAge = userAge;\n        LogUpdateUser(\n        userAddress,\n        userStructs[userAddress].index,\n        userStructs[userAddress].userName,\n        userStructs[userAddress].userEmail,\n        userAge);\n        return true;\n    }\n\n    function getUserCount()\n        public\n        constant\n        returns(uint count)\n    {\n        return userIndex.length;\n    }\n\n    function getUserAtIndex(uint index)\n        public\n        constant\n        returns(address userAddress)\n    {\n        return userIndex[index];\n    }\n\n    function getAllUsers() public view returns(\n        bytes32[] userNames,\n        bytes32[] userEmails,\n        uint[] userAges,\n        uint[] userIndexes)\n    {\n        bytes32[] memory names = new bytes32[](userIndex.length);\n        bytes32[] memory emails = new bytes32[](userIndex.length);\n        uint[] memory ages = new uint[](userIndex.length);\n        uint[] memory indexes = new uint[](userIndex.length);\n\n        for (var index = 0; index < userIndex.length; index++) {\n            var userAddress = userIndex[index];\n            names[index] = userStructs[userAddress].userName;\n            emails[index] = userStructs[userAddress].userEmail;\n            ages[index] = userStructs[userAddress].userAge;\n            indexes[index] = userStructs[userAddress].index;\n        }\n\n        return (names, emails, ages, indexes);\n    }\n}\n",
  "sourcePath": "/Users/eunwoo/Desktop/my-study/blockchain/blockchain-mvp-project/contracts/UserInit.sol",
  "compiler": {
    "name": "solc",
    "version": "0.4.23+commit.124ca40d.Emscripten.clang"
  },
  "schemaVersion": "2.0.0",
  "updatedAt": "2018-05-04T05:08:19.024Z"
}