{
  "contractName": "UserInit",
  "abi": [
    {
      "anonymous": false,
      "inputs": [
        {
          "indexed": true,
          "name": "userAddress",
          "type": "address"
        },
        {
          "indexed": false,
          "name": "index",
          "type": "uint256"
        },
        {
          "indexed": false,
          "name": "userName",
          "type": "bytes32"
        },
        {
          "indexed": false,
          "name": "userEmail",
          "type": "bytes32"
        },
        {
          "indexed": false,
          "name": "userAge",
          "type": "uint256"
        }
      ],
      "name": "LogNewUser",
      "type": "event"
    },
    {
      "anonymous": false,
      "inputs": [
        {
          "indexed": true,
          "name": "userAddress",
          "type": "address"
        },
        {
          "indexed": false,
          "name": "index",
          "type": "uint256"
        },
        {
          "indexed": false,
          "name": "userName",
          "type": "bytes32"
        },
        {
          "indexed": false,
          "name": "userEmail",
          "type": "bytes32"
        },
        {
          "indexed": false,
          "name": "userAge",
          "type": "uint256"
        }
      ],
      "name": "LogUpdateUser",
      "type": "event"
    },
    {
      "anonymous": false,
      "inputs": [
        {
          "indexed": true,
          "name": "userAddress",
          "type": "address"
        },
        {
          "indexed": false,
          "name": "index",
          "type": "uint256"
        }
      ],
      "name": "LogDeleteUser",
      "type": "event"
    },
    {
      "constant": true,
      "inputs": [
        {
          "name": "userAddress",
          "type": "address"
        }
      ],
      "name": "isUser",
      "outputs": [
        {
          "name": "isIndeed",
          "type": "bool"
        }
      ],
      "payable": false,
      "stateMutability": "view",
      "type": "function"
    },
    {
      "constant": false,
      "inputs": [
        {
          "name": "userAddress",
          "type": "address"
        },
        {
          "name": "userName",
          "type": "bytes32"
        },
        {
          "name": "userAge",
          "type": "uint256"
        },
        {
          "name": "userEmail",
          "type": "bytes32"
        }
      ],
      "name": "insertUser",
      "outputs": [
        {
          "name": "index",
          "type": "uint256"
        }
      ],
      "payable": false,
      "stateMutability": "nonpayable",
      "type": "function"
    },
    {
      "constant": false,
      "inputs": [
        {
          "name": "userAddress",
          "type": "address"
        }
      ],
      "name": "deleteUser",
      "outputs": [
        {
          "name": "index",
          "type": "uint256"
        }
      ],
      "payable": false,
      "stateMutability": "nonpayable",
      "type": "function"
    },
    {
      "constant": true,
      "inputs": [
        {
          "name": "userAddress",
          "type": "address"
        }
      ],
      "name": "getUser",
      "outputs": [
        {
          "name": "userName",
          "type": "bytes32"
        },
        {
          "name": "userEmail",
          "type": "bytes32"
        },
        {
          "name": "userAge",
          "type": "uint256"
        },
        {
          "name": "index",
          "type": "uint256"
        }
      ],
      "payable": false,
      "stateMutability": "view",
      "type": "function"
    },
    {
      "constant": false,
      "inputs": [
        {
          "name": "userAddress",
          "type": "address"
        },
        {
          "name": "userEmail",
          "type": "bytes32"
        }
      ],
      "name": "updateUserEmail",
      "outputs": [
        {
          "name": "success",
          "type": "bool"
        }
      ],
      "payable": false,
      "stateMutability": "nonpayable",
      "type": "function"
    },
    {
      "constant": false,
      "inputs": [
        {
          "name": "userAddress",
          "type": "address"
        },
        {
          "name": "userAge",
          "type": "uint256"
        }
      ],
      "name": "updateUserAge",
      "outputs": [
        {
          "name": "success",
          "type": "bool"
        }
      ],
      "payable": false,
      "stateMutability": "nonpayable",
      "type": "function"
    },
    {
      "constant": true,
      "inputs": [],
      "name": "getUserCount",
      "outputs": [
        {
          "name": "count",
          "type": "uint256"
        }
      ],
      "payable": false,
      "stateMutability": "view",
      "type": "function"
    },
    {
      "constant": true,
      "inputs": [
        {
          "name": "index",
          "type": "uint256"
        }
      ],
      "name": "getUserAtIndex",
      "outputs": [
        {
          "name": "userAddress",
          "type": "address"
        }
      ],
      "payable": false,
      "stateMutability": "view",
      "type": "function"
    },
    {
      "constant": true,
      "inputs": [],
      "name": "getAllUsers",
      "outputs": [
        {
          "name": "userNames",
          "type": "bytes32[]"
        },
        {
          "name": "userEmails",
          "type": "bytes32[]"
        },
        {
          "name": "userAges",
          "type": "uint256[]"
        },
        {
          "name": "userIndexes",
          "type": "uint256[]"
        },
        {
          "name": "userAddress",
          "type": "address[]"
        }
      ],
      "payable": false,
      "stateMutability": "view",
      "type": "function"
    }
  ],
  "bytecode": "0x608060405234801561001057600080fd5b506112dc806100206000396000f300608060405260043610610099576000357c0100000000000000000000000000000000000000000000000000000000900463ffffffff1680632e071db31461009e5780634209fff1146101035780635c60f2261461015e5780636f77926b146101b557806381f1d75c14610231578063ad4cc9b01461029a578063b5cb15f714610317578063e2842d7914610342578063ffcc7bbf146104ce575b600080fd5b3480156100aa57600080fd5b506100e9600480360381019080803573ffffffffffffffffffffffffffffffffffffffff1690602001909291908035906020019092919050505061053b565b604051808215151515815260200191505060405180910390f35b34801561010f57600080fd5b50610144600480360381019080803573ffffffffffffffffffffffffffffffffffffffff1690602001909291905050506106da565b604051808215151515815260200191505060405180910390f35b34801561016a57600080fd5b5061019f600480360381019080803573ffffffffffffffffffffffffffffffffffffffff1690602001909291905050506107a3565b6040518082815260200191505060405180910390f35b3480156101c157600080fd5b506101f6600480360381019080803573ffffffffffffffffffffffffffffffffffffffff16906020019092919050505061094e565b604051808560001916600019168152602001846000191660001916815260200183815260200182815260200194505050505060405180910390f35b34801561023d57600080fd5b50610280600480360381019080803573ffffffffffffffffffffffffffffffffffffffff1690602001909291908035600019169060200190929190505050610a7f565b604051808215151515815260200191505060405180910390f35b3480156102a657600080fd5b50610301600480360381019080803573ffffffffffffffffffffffffffffffffffffffff1690602001909291908035600019169060200190929190803590602001909291908035600019169060200190929190505050610c22565b6040518082815260200191505060405180910390f35b34801561032357600080fd5b5061032c610e86565b6040518082815260200191505060405180910390f35b34801561034e57600080fd5b50610357610e93565b60405180806020018060200180602001806020018060200186810386528b818151815260200191508051906020019060200280838360005b838110156103aa57808201518184015260208101905061038f565b5050505090500186810385528a818151815260200191508051906020019060200280838360005b838110156103ec5780820151818401526020810190506103d1565b50505050905001868103845289818151815260200191508051906020019060200280838360005b8381101561042e578082015181840152602081019050610413565b50505050905001868103835288818151815260200191508051906020019060200280838360005b83811015610470578082015181840152602081019050610455565b50505050905001868103825287818151815260200191508051906020019060200280838360005b838110156104b2578082015181840152602081019050610497565b505050509050019a505050505050505050505060405180910390f35b3480156104da57600080fd5b506104f96004803603810190808035906020019092919050505061121c565b604051808273ffffffffffffffffffffffffffffffffffffffff1673ffffffffffffffffffffffffffffffffffffffff16815260200191505060405180910390f35b6000610546836106da565b151561055157600080fd5b816000808573ffffffffffffffffffffffffffffffffffffffff1673ffffffffffffffffffffffffffffffffffffffff168152602001908152602001600020600201819055508273ffffffffffffffffffffffffffffffffffffffff167f69d58da3a4a4ccf07e213eae4603174516e4d80c04549fe049e26fffe78f2c196000808673ffffffffffffffffffffffffffffffffffffffff1673ffffffffffffffffffffffffffffffffffffffff168152602001908152602001600020600301546000808773ffffffffffffffffffffffffffffffffffffffff1673ffffffffffffffffffffffffffffffffffffffff168152602001908152602001600020600101546000808873ffffffffffffffffffffffffffffffffffffffff1673ffffffffffffffffffffffffffffffffffffffff1681526020019081526020016000206000015486604051808581526020018460001916600019168152602001836000191660001916815260200182815260200194505050505060405180910390a26001905092915050565b60008060018054905014156106f2576000905061079e565b8173ffffffffffffffffffffffffffffffffffffffff1660016000808573ffffffffffffffffffffffffffffffffffffffff1673ffffffffffffffffffffffffffffffffffffffff1681526020019081526020016000206003015481548110151561075957fe5b9060005260206000200160009054906101000a900473ffffffffffffffffffffffffffffffffffffffff1673ffffffffffffffffffffffffffffffffffffffff161490505b919050565b60008060006107b1846106da565b15156107bc57600080fd5b6000808573ffffffffffffffffffffffffffffffffffffffff1673ffffffffffffffffffffffffffffffffffffffff16815260200190815260200160002060030154915060018080805490500381548110151561081557fe5b9060005260206000200160009054906101000a900473ffffffffffffffffffffffffffffffffffffffff1690508060018381548110151561085257fe5b9060005260206000200160006101000a81548173ffffffffffffffffffffffffffffffffffffffff021916908373ffffffffffffffffffffffffffffffffffffffff160217905550816000808373ffffffffffffffffffffffffffffffffffffffff1673ffffffffffffffffffffffffffffffffffffffff1681526020019081526020016000206003018190555060018054809190600190036108f5919061125f565b508373ffffffffffffffffffffffffffffffffffffffff167f9a67af531bfbfd34f63109e83cfab08e30f92a1827d5c3f50e8fa815469ff9f2836040518082815260200191505060405180910390a28192505050919050565b60008060008061095d856106da565b151561096857600080fd5b6000808673ffffffffffffffffffffffffffffffffffffffff1673ffffffffffffffffffffffffffffffffffffffff168152602001908152602001600020600101546000808773ffffffffffffffffffffffffffffffffffffffff1673ffffffffffffffffffffffffffffffffffffffff168152602001908152602001600020600001546000808873ffffffffffffffffffffffffffffffffffffffff1673ffffffffffffffffffffffffffffffffffffffff168152602001908152602001600020600201546000808973ffffffffffffffffffffffffffffffffffffffff1673ffffffffffffffffffffffffffffffffffffffff1681526020019081526020016000206003015493509350935093509193509193565b6000610a8a836106da565b1515610a9557600080fd5b816000808573ffffffffffffffffffffffffffffffffffffffff1673ffffffffffffffffffffffffffffffffffffffff16815260200190815260200160002060000181600019169055508273ffffffffffffffffffffffffffffffffffffffff167f69d58da3a4a4ccf07e213eae4603174516e4d80c04549fe049e26fffe78f2c196000808673ffffffffffffffffffffffffffffffffffffffff1673ffffffffffffffffffffffffffffffffffffffff168152602001908152602001600020600301546000808773ffffffffffffffffffffffffffffffffffffffff1673ffffffffffffffffffffffffffffffffffffffff16815260200190815260200160002060010154856000808973ffffffffffffffffffffffffffffffffffffffff1673ffffffffffffffffffffffffffffffffffffffff16815260200190815260200160002060020154604051808581526020018460001916600019168152602001836000191660001916815260200182815260200194505050505060405180910390a26001905092915050565b6000610c2d856106da565b15610c3757600080fd5b816000808773ffffffffffffffffffffffffffffffffffffffff1673ffffffffffffffffffffffffffffffffffffffff1681526020019081526020016000206000018160001916905550826000808773ffffffffffffffffffffffffffffffffffffffff1673ffffffffffffffffffffffffffffffffffffffff16815260200190815260200160002060020181905550836000808773ffffffffffffffffffffffffffffffffffffffff1673ffffffffffffffffffffffffffffffffffffffff16815260200190815260200160002060010181600019169055506001808690806001815401808255809150509060018203906000526020600020016000909192909190916101000a81548173ffffffffffffffffffffffffffffffffffffffff021916908373ffffffffffffffffffffffffffffffffffffffff160217905550036000808773ffffffffffffffffffffffffffffffffffffffff1673ffffffffffffffffffffffffffffffffffffffff168152602001908152602001600020600301819055508473ffffffffffffffffffffffffffffffffffffffff167ff918b138b5e4a6e56ffd62f1c22bd7ce75cb8aeea425f7f901be3000a2b0fa7c6000808873ffffffffffffffffffffffffffffffffffffffff1673ffffffffffffffffffffffffffffffffffffffff16815260200190815260200160002060030154868587604051808581526020018460001916600019168152602001836000191660001916815260200182815260200194505050505060405180910390a260018080549050039050949350505050565b6000600180549050905090565b606080606080606080606080606080600080600180549050604051908082528060200260200182016040528015610ed95781602001602082028038833980820191505090505b509650600180549050604051908082528060200260200182016040528015610f105781602001602082028038833980820191505090505b509550600180549050604051908082528060200260200182016040528015610f475781602001602082028038833980820191505090505b509450600180549050604051908082528060200260200182016040528015610f7e5781602001602082028038833980820191505090505b509350600180549050604051908082528060200260200182016040528015610fb55781602001602082028038833980820191505090505b509250600091505b6001805490508260ff1610156111ff5760018260ff16815481101515610fdf57fe5b9060005260206000200160009054906101000a900473ffffffffffffffffffffffffffffffffffffffff16905080838360ff1681518110151561101e57fe5b9060200190602002019073ffffffffffffffffffffffffffffffffffffffff16908173ffffffffffffffffffffffffffffffffffffffff16815250506000808273ffffffffffffffffffffffffffffffffffffffff1673ffffffffffffffffffffffffffffffffffffffff16815260200190815260200160002060010154878360ff168151811015156110ad57fe5b9060200190602002019060001916908160001916815250506000808273ffffffffffffffffffffffffffffffffffffffff1673ffffffffffffffffffffffffffffffffffffffff16815260200190815260200160002060000154868360ff1681518110151561111857fe5b9060200190602002019060001916908160001916815250506000808273ffffffffffffffffffffffffffffffffffffffff1673ffffffffffffffffffffffffffffffffffffffff16815260200190815260200160002060020154858360ff1681518110151561118357fe5b90602001906020020181815250506000808273ffffffffffffffffffffffffffffffffffffffff1673ffffffffffffffffffffffffffffffffffffffff16815260200190815260200160002060030154848360ff168151811015156111e457fe5b90602001906020020181815250508180600101925050610fbd565b86868686869b509b509b509b509b50505050505050509091929394565b600060018281548110151561122d57fe5b9060005260206000200160009054906101000a900473ffffffffffffffffffffffffffffffffffffffff169050919050565b81548183558181111561128657818360005260206000209182019101611285919061128b565b5b505050565b6112ad91905b808211156112a9576000816000905550600101611291565b5090565b905600a165627a7a7230582043a26c1c36b4e02acaec90bfce8ce3f7e48c169410882f0b31252c51ff335cdf0029",
  "source": "pragma solidity ^0.4.17;\n\n\ncontract UserInit {\n    event LogNewUser   (address indexed userAddress, uint index, bytes32 userName, bytes32 userEmail, uint userAge);\n    event LogUpdateUser(address indexed userAddress, uint index, bytes32 userName, bytes32 userEmail, uint userAge);\n    event LogDeleteUser(address indexed userAddress, uint index);\n\n    struct UserStruct {\n        bytes32 userEmail;\n        bytes32 userName;\n        uint userAge;\n        uint index;\n    }\n\n    mapping(address => UserStruct) private userStructs;\n    address[] private userIndex;\n\n    function isUser(address userAddress)\n        public\n        constant\n        returns(bool isIndeed)\n    {\n        if(userIndex.length == 0) return false;\n        return (userIndex[userStructs[userAddress].index] == userAddress);\n    }\n\n    function insertUser(\n        address userAddress,\n        bytes32 userName,\n        uint    userAge,\n        bytes32 userEmail)\n        public\n        returns(uint index)\n    {\n        if(isUser(userAddress)) throw;\n        userStructs[userAddress].userEmail = userEmail;\n        userStructs[userAddress].userAge   = userAge;\n        userStructs[userAddress].userName  = userName;\n        userStructs[userAddress].index     = userIndex.push(userAddress)-1;\n        LogNewUser(\n            userAddress,\n            userStructs[userAddress].index,\n            userName,\n            userEmail,\n            userAge);\n        return userIndex.length-1;\n    }\n\n    function deleteUser(address userAddress)\n    public\n    returns(uint index)\n    {\n        if(!isUser(userAddress)) throw;\n        uint rowToDelete = userStructs[userAddress].index;\n        address keyToMove = userIndex[userIndex.length-1];\n        userIndex[rowToDelete] = keyToMove;\n        userStructs[keyToMove].index = rowToDelete;\n        userIndex.length--;\n        LogDeleteUser(\n            userAddress,\n            rowToDelete);\n        return rowToDelete;\n    }\n\n    function getUser(address userAddress)\n        public\n        constant\n        returns(bytes32 userName, bytes32 userEmail, uint userAge, uint index)\n    {\n        if(!isUser(userAddress)) throw;\n        return(\n        userStructs[userAddress].userName,\n        userStructs[userAddress].userEmail,\n        userStructs[userAddress].userAge,\n        userStructs[userAddress].index);\n    }\n\n    function updateUserEmail(address userAddress, bytes32 userEmail)\n        public\n        returns(bool success)\n    {\n        if(!isUser(userAddress)) throw;\n        userStructs[userAddress].userEmail = userEmail;\n        LogUpdateUser(\n        userAddress,\n        userStructs[userAddress].index,\n        userStructs[userAddress].userName,\n        userEmail,\n        userStructs[userAddress].userAge);\n        return true;\n    }\n\n    function updateUserAge(address userAddress, uint userAge)\n        public\n        returns(bool success)\n    {\n        if(!isUser(userAddress)) throw;\n        userStructs[userAddress].userAge = userAge;\n        LogUpdateUser(\n        userAddress,\n        userStructs[userAddress].index,\n        userStructs[userAddress].userName,\n        userStructs[userAddress].userEmail,\n        userAge);\n        return true;\n    }\n\n    function getUserCount()\n        public\n        constant\n        returns(uint count)\n    {\n        return userIndex.length;\n    }\n\n    function getUserAtIndex(uint index)\n        public\n        constant\n        returns(address userAddress)\n    {\n        return userIndex[index];\n    }\n\n    function getAllUsers() public view returns(\n        bytes32[] userNames,\n        bytes32[] userEmails,\n        uint[] userAges,\n        uint[] userIndexes,\n        address[] userAddress)\n    {\n        bytes32[] memory names = new bytes32[](userIndex.length);\n        bytes32[] memory emails = new bytes32[](userIndex.length);\n        uint[] memory ages = new uint[](userIndex.length);\n        uint[] memory indexes = new uint[](userIndex.length);\n        address[] memory resultAddress = new address[](userIndex.length);\n\n        for (var index = 0; index < userIndex.length; index++) {\n            var tempAddress = userIndex[index];\n            resultAddress[index] = tempAddress;\n            names[index] = userStructs[tempAddress].userName;\n            emails[index] = userStructs[tempAddress].userEmail;\n            ages[index] = userStructs[tempAddress].userAge;\n            indexes[index] = userStructs[tempAddress].index;\n        }\n\n        return (names, emails, ages, indexes, resultAddress);\n    }\n}\n",
  "sourcePath": "/Users/eunwoo/Desktop/my-study/blockchain/blockchain-mvp-project/contracts/UserInit.sol",
  "compiler": {
    "name": "solc",
    "version": "0.4.23+commit.124ca40d.Emscripten.clang"
  },
  "schemaVersion": "2.0.0",
  "updatedAt": "2018-05-08T08:07:41.440Z"
}