{
  "contractName": "UserInit",
  "abi": [
    {
      "constant": true,
      "inputs": [],
      "name": "value",
      "outputs": [
        {
          "name": "",
          "type": "uint256"
        }
      ],
      "payable": false,
      "stateMutability": "view",
      "type": "function"
    },
    {
      "anonymous": false,
      "inputs": [
        {
          "indexed": false,
          "name": "val",
          "type": "uint256"
        }
      ],
      "name": "ValueSet",
      "type": "event"
    },
    {
      "anonymous": false,
      "inputs": [
        {
          "indexed": false,
          "name": "userAddress",
          "type": "address"
        },
        {
          "indexed": false,
          "name": "name",
          "type": "string"
        },
        {
          "indexed": false,
          "name": "age",
          "type": "uint256"
        },
        {
          "indexed": false,
          "name": "email",
          "type": "string"
        }
      ],
      "name": "UserInsert",
      "type": "event"
    },
    {
      "constant": false,
      "inputs": [
        {
          "name": "_userAddress",
          "type": "address"
        },
        {
          "name": "_name",
          "type": "string"
        },
        {
          "name": "_age",
          "type": "uint256"
        },
        {
          "name": "_email",
          "type": "string"
        }
      ],
      "name": "insertUser",
      "outputs": [],
      "payable": false,
      "stateMutability": "nonpayable",
      "type": "function"
    },
    {
      "constant": true,
      "inputs": [
        {
          "name": "userAddress",
          "type": "address"
        }
      ],
      "name": "isUser",
      "outputs": [
        {
          "name": "",
          "type": "bool"
        }
      ],
      "payable": false,
      "stateMutability": "view",
      "type": "function"
    },
    {
      "constant": false,
      "inputs": [
        {
          "name": "val",
          "type": "uint256"
        }
      ],
      "name": "setValue",
      "outputs": [],
      "payable": false,
      "stateMutability": "nonpayable",
      "type": "function"
    },
    {
      "constant": true,
      "inputs": [],
      "name": "getValue",
      "outputs": [
        {
          "name": "",
          "type": "uint256"
        }
      ],
      "payable": false,
      "stateMutability": "view",
      "type": "function"
    }
  ],
  "bytecode": "0x608060405234801561001057600080fd5b506105d0806100206000396000f30060806040526004361061006d576000357c0100000000000000000000000000000000000000000000000000000000900463ffffffff16806320965255146100725780633fa4f2451461009d5780634209fff1146100c85780634b1b90cf1461012357806355241077146101fc575b600080fd5b34801561007e57600080fd5b50610087610229565b6040518082815260200191505060405180910390f35b3480156100a957600080fd5b506100b2610232565b6040518082815260200191505060405180910390f35b3480156100d457600080fd5b50610109600480360381019080803573ffffffffffffffffffffffffffffffffffffffff169060200190929190505050610238565b604051808215151515815260200191505060405180910390f35b34801561012f57600080fd5b506101fa600480360381019080803573ffffffffffffffffffffffffffffffffffffffff169060200190929190803590602001908201803590602001908080601f016020809104026020016040519081016040528093929190818152602001838380828437820191505050505050919291929080359060200190929190803590602001908201803590602001908080601f0160208091040260200160405190810160405280939291908181526020018383808284378201915050505050509192919290505050610291565b005b34801561020857600080fd5b50610227600480360381019080803590602001909291905050506104bc565b005b60008054905090565b60005481565b6000600160008373ffffffffffffffffffffffffffffffffffffffff1673ffffffffffffffffffffffffffffffffffffffff16815260200190815260200160002060030160009054906101000a900460ff169050919050565b61029a84610238565b1515156102a657600080fd5b60806040519081016040528084815260200183815260200182815260200160011515815250600160008673ffffffffffffffffffffffffffffffffffffffff1673ffffffffffffffffffffffffffffffffffffffff16815260200190815260200160002060008201518160000190805190602001906103269291906104ff565b5060208201518160010155604082015181600201908051906020019061034d9291906104ff565b5060608201518160030160006101000a81548160ff0219169083151502179055509050507f205fd2a53ec6fb7bbfb79e5cbd09e6e99be70163b38112044b8f76046b585af184848484604051808573ffffffffffffffffffffffffffffffffffffffff1673ffffffffffffffffffffffffffffffffffffffff1681526020018060200184815260200180602001838103835286818151815260200191508051906020019080838360005b838110156104125780820151818401526020810190506103f7565b50505050905090810190601f16801561043f5780820380516001836020036101000a031916815260200191505b50838103825284818151815260200191508051906020019080838360005b8381101561047857808201518184015260208101905061045d565b50505050905090810190601f1680156104a55780820380516001836020036101000a031916815260200191505b50965050505050505060405180910390a150505050565b806000819055507f012c78e2b84325878b1bd9d250d772cfe5bda7722d795f45036fa5e1e6e303fc6000546040518082815260200191505060405180910390a150565b828054600181600116156101000203166002900490600052602060002090601f016020900481019282601f1061054057805160ff191683800117855561056e565b8280016001018555821561056e579182015b8281111561056d578251825591602001919060010190610552565b5b50905061057b919061057f565b5090565b6105a191905b8082111561059d576000816000905550600101610585565b5090565b905600a165627a7a72305820ce7bd244a26809d8df121daab3afde8b07ba42380796576082b56517fc2635430029",
  "source": "pragma solidity ^0.4.17;\n\n\ncontract UserInit {\n    uint public value;\n    event ValueSet(uint val);\n    event UserInsert(address userAddress, string name, uint age, string email);\n\n    struct User {\n        string name;\n        uint age;\n        string email;\n        bool isUser;\n    }\n\n    mapping (address => User) users;\n\n    function insertUser(\n        address _userAddress,\n        string _name,\n        uint _age,\n        string _email ) public\n    {\n        require(!isUser(_userAddress));\n        users[_userAddress] = User(_name, _age, _email, true);\n        UserInsert(_userAddress, _name, _age, _email);\n    }\n\n    function isUser(address userAddress) public view returns (bool) {\n        return users[userAddress].isUser;\n    }\n\n    function setValue(uint val) public {\n        value = val;\n        ValueSet(value);\n    }\n\n    function getValue() public constant returns (uint) {\n        return value;\n    }\n}\n",
  "sourcePath": "/Users/eunwoo/Desktop/my-study/blockchain/blockchain-mvp-project/contracts/UserInit.sol",
  "compiler": {
    "name": "solc",
    "version": "0.4.23+commit.124ca40d.Emscripten.clang"
  },
  "schemaVersion": "2.0.0",
  "updatedAt": "2018-05-03T07:03:57.905Z"
}